:020000040800F2
:100000000018002021020008710200087102000897
:10001000710200087102000871020008000000006F
:100020000000000000000000000000007102000855
:10003000710200080000000071020008710200084F
:1000400071020008710200087102000871020008C4
:1000500071020008710200087102000871020008B4
:1000600071020008710200087102000871020008A4
:100070007102000871020008710200087102000894
:100080007102000871020008710200087102000884
:100090007102000871020008710200087102000874
:1000A0007102000871020008710200087102000864
:1000B0007102000871020008710200087102000854
:1000C0007102000871020008710200087102000844
:1000D0007102000871020008710200087102000834
:1000E000710200087102000800000000710200089F
:1000F0007102000871020008710200087102000814
:100100007102000871020008710200087102000803
:1001100071020008710200087102000871020008F3
:1001200071020008710200087102000871020008E3
:1001300010B5054C237833B9044B13B10448AFF321
:1001400000800123237010BD00000020000000008B
:10015000BC02000808B5034B1BB103490348AFF3C9
:10016000008008BD0000000004000020BC02000860
:1001700080B400AF0A4B9B69094A43F010039361B6
:10018000084B5B68074A43F480135360054B5B6878
:10019000044A23F40013536000BFBD4680BC70477F
:1001A000001002400010014080B400AF044BDB6837
:1001B000034A43F40053D36000BFBD4680BC704780
:1001C0000010014080B400AF044BDB68034A23F405
:1001D0000053D36000BFBD4680BC70470010014093
:1001E00080B582B000AFFFF7C3FFFFF7DDFF00234C
:1001F0007B6002E07B6801337B607B6842F20E72B9
:100200009342F7DDFFF7DEFF00233B6002E03B682F
:1002100001333B603B6842F20E729342F7DDE4E744
:100220000D488546AFF300800C480D490D4A002368
:1002300002E0D458C4500433C4188C42F9D30A4A9B
:100240000A4C002301E013600432A242FBD300F009
:1002500011F8FFF7C5FFFEE700180020000000209E
:1002600000000020DC020008000000201C0000202C
:10027000FEE7000070B500260C4D0D4C641BA41069
:10028000A64209D100F01AF800260A4D0A4C641B58
:10029000A410A64205D170BD55F8043B984701361D
:1002A000EEE755F8043B98470136F2E7D402000820
:1002B000D4020008D4020008D8020008F8B500BF34
:1002C000F8BC08BC9E467047F8B500BFF8BC08BC37
:0402D0009E4670478F
:0402D40055010008C8
:0402D80031010008E8
:0400000508000221CC
:00000001FF
